:0600000000F01CEF00F00F
:10000800FFFF1E82D9CF1AF0DACF1BF0F3CF1CF016
:10001800F4CF1DF0F2B01EEC00F01DC0F4FF1CC0C0
:10002800F3FF1BC0DAFF1AC0D9FF1E921100FFFFB1
:10003800B0EF00F0FFFF000E176E040E196E000EF1
:10004800126E0F0E116E78EC00F081CF18F0F00EE2
:10005800181A1850D8B445D002D0FFFF172AFFFF4E
:10006800D89018361850D8A4F8D7FE0E816EFE0E18
:100078008118D8B402D0000E1AD0FFFFFD0E816E91
:10008800FD0E8118D8B402D0010E11D0FFFFFB0E6F
:10009800816EFB0E8118D8B402D0020E08D0FFFF83
:1000A800F70E816EF70E8118D8B403D0030EFFFF48
:1000B800196EFFFF040E19600ED01950040DF3508D
:1000C800010F1724D96EDA6ADF50C5EC00F003D0AF
:1000D800FFFFF00E816EFFFFF00E8118D8A4F8D74D
:1000E800F290FFFF1200FFFFFFFF000E146E000EDC
:1000F800136E10D0FFFF000E166E000E156EFFFF78
:10010800154A162A165004E1870E155CD8A0F7D7B1
:10011800134A142AFFFF1150135C12501458D8B018
:100128001200FFFFE7D7FFFFFFFFFFFF000E956EEE
:10013800F19EF00E936EF00E816EFFFFF00E8118A7
:10014800D8A4FBD7200EAC6E0F0EAF6EAC8AAB8E68
:10015800F286F28EFFFFFED7A00EF66E010EF76E46
:10016800000EF86E00EE01F010EE10F00900F5CF69
:10017800EEFFE550E150FAE11E901E92000199EF62
:1001880000F0FFFF116EFFFF9EA8FDD711C0ADFF65
:1001980011C083FF1200FFFF3738392F3435362A54
:0A01A8003132332D43303D2BFFFFB1
:020000040020DA
:08000000FFFFFFFFFFFFFFFF00
:020000040030CA
:0E000000FF210F0EFF0180FF0FC00FE00F4029
:00000001FF
